:020000040800F2
:100000000000032005BA0008A9840008AB8400089A
:10001000AD840008AF840008B1840008000000002F
:1000200000000000000000000000000081810008C6
:10003000B38400080000000011820008B5840008A5
:1000400055BA000855BA000855BA000855BA000854
:1000500055BA000855BA000855BA000855BA000844
:1000600055BA000855BA000855BA000855BA000834
:1000700055BA000855BA000855BA000855BA000824
:1000800055BA000855BA000855BA000855BA000814
:1000900055BA000855BA000855BA000855BA000804
:1000A00055BA000855BA000855BA000855BA0008F4
:1000B00055BA000855BA000855BA000855BA0008E4
:1000C00055BA000855BA000855BA000855BA0008D4
:1000D00055BA000855BA000855BA000855BA0008C4
:1000E00055BA000855BA000855BA000855BA0008B4
:1000F00055BA000855BA000855BA000855BA0008A4
:1001000055BA000855BA000855BA000855BA000893
:1001100055BA000855BA00089D84000855BA000871
:1001200055BA000855BA000855BA000855BA000873
:1001300055BA000855BA000855BA000855BA000863
:1001400055BA000855BA000855BA000855BA000853
:1001500055BA000855BA000855BA000855BA000843
:1001600055BA000855BA000855BA000855BA000833
:1001700055BA000855BA000855BA0008000000003A
:1001800055BA000855BA000855BA000855BA000813
:1001900055BA000855BA000855BA000855BA000803
:0C01A000E56B0008D1840008C58400084D
:1040000010B5054C237833B9044B13B10448AFF312
:1040100000800123237010BD100300200000000069
:10402000F42A01080C4B43B10C480D4910B5AFF30D
:1040300000800C48036823B910BD0A48036833B9EF
:104040007047094B002BF7D0BDE810401847064BCE
:10405000002BF5D0184700BF00000000F42A01082B
:1040600014030020100300200000000053B94AB9D7
:10407000002908BF00281CBF4FF0FF314FF0FF3070
:1040800000F07AB9ADF1080C6DE904CE00F006F845
:10409000DDF804E0DDE9022304B070472DE9F047C4
:1040A0008C460D460446089E002B51D18A42174685
:1040B0006DD9B2FA82FEBEF1000F0BD0CEF1200C0A
:1040C00001FA0EF520FA0CFC02FA0EF74CEA050C88
:1040D00000FA0EF44FEA174A250CBCFBFAF81FFA57
:1040E00087F90AFB18CC45EA0C4508FB09F3AB42FB
:1040F0000AD9ED1908F1FF3280F02381AB4240F27A
:104100002081A8F102083D44ED1AA4B2B5FBFAF0F3
:104110000AFB105544EA054400FB09F9A14509D9F9
:10412000E41900F1FF3380F00A81A14540F20781D4
:1041300002383C44A4EB090440EA08400021002E68
:1041400061D024FA0EF4002334607360BDE8F08778
:104150008B4207D9002E54D0002186E82100084662
:10416000BDE8F087B3FA83F1002940F08E80AB42BE
:1041700002D3824200F2FA80841A65EB0305012023
:10418000AC46002E3FD086E81010BDE8F08712B98B
:104190000127B7FBF2F7B7FA87FEBEF1000F34D163
:1041A000EB1B3A0C1FFA87FC0121B3FBF2F8250C3C
:1041B00002FB183345EA03450CFB08F3AB4207D971
:1041C000ED1908F1FF3002D2AB4200F2D1808046F7
:1041D000ED1AA3B2B5FBF2F002FB105543EA054419
:1041E0000CFB00FCA44507D9E41900F1FF3302D20F
:1041F000A44500F2B8801846A4EB0C0440EA08403D
:104200009DE731463046BDE8F087CEF1200405FA3F
:104210000EF307FA0EF720FA04F83A0C25FA04F424
:1042200048EA0308B4FBF2F14FEA184502FB1144D7
:104230001FFA87FC45EA044501FB0CF3AB4200FA88
:104240000EF409D9ED1901F1FF3080F08A80AB42FC
:1042500040F2878002393D44EB1A1FFA88F5B3FB20
:10426000F2F002FB103345EA034500FB0CF3AB42CE
:1042700007D9ED1900F1FF386FD2AB426DD9023882
:104280003D44EB1A40EA01418FE7C1F1200722FAD1
:1042900007F88B4005FA01F448EA030320FA07FE09
:1042A0004FEA134CFD404EEA040EB5FBFCF94FEA11
:1042B0001E440CFB19551FFA83F844EA054509FB17
:1042C00008F4AC4202FA01F200FA01FA08D9ED183A
:1042D00009F1FF3043D2AC4241D9A9F102091D4492
:1042E0002D1B1FFA8EFEB5FBFCF00CFB10554EEAA1
:1042F000054400FB08F8A04507D9E41800F1FF3594
:1043000029D2A04527D902381C4440EA0940A4EB31
:104310000804A0FB02894C45C6464D4615D312D071
:1043200056B1BAEB0E0364EB050404FA07F7CB4071
:104330001F43CC40376074600021BDE8F087184609
:10434000F8E69046E0E6C245EAD2B8EB020E69EB29
:1043500003050138E4E72846D7E7404691E7814660
:10436000BEE7014678E702383C4445E7084608E7DF
:10437000A8F102083D442BE7704700BF0000000091
:1043800001F0FF01102A2BDB10F0070F08D010F806
:10439000013B013A8B422DD010F0070F42B3F6D10A
:1043A000F0B441EA012141EA014122F007047FF023
:1043B00000070023F0E80256083C85EA010586EA7A
:1043C000010685FA47F5A3FA87F586FA47F6A5FAB6
:1043D00087F68EB9EED1F0BC01F0FF0102F00702C2
:1043E00032B110F8013B013A83EA010313B1F8D16D
:1043F0000020704701387047002D06BF354603384E
:10440000073815F0010F07D1013015F4807F02BF86
:10441000013015F4C03F0130F0BC0138704700BFD7
:1044200070477047704700F01FB910B54FF409711D
:1044300004460DF03FFB204610BD000010B50446B9
:1044400000F040FA014B2360204610BD5C2B0108B0
:104450007047A0F10400FBE7704710B51021044637
:104460000DF028FB204610BDA0F10400F5E7000088
:1044700010B500228260044AC16002F108042032B3
:104480000460426010BD00BF882B0108002202605A
:10449000704770477047704710B54FF4A8710446D5
:1044A0000DF008FB204610BD10B50446D0F84C01B5
:1044B000FFF7EFFF2046BDE8104009F0FFBD10B543
:1044C0000446D0F8340158B10368DB68984738B126
:1044D000D4F8340103689B6898470023C4F834314A
:1044E00010BD000010B5044600F0DAFE014B236059
:1044F000204610BDB82B01087047A0F10400FBE76F
:10450000704710B5102104460DF0D4FA204610BDB6
:10451000A0F10400F5E7000010B500228260044A13
:10452000C16002F1080420320460426010BD00BF87
:10453000EC2B010870477047704710B5044601F036
:1045400024F9D4F8443184F8983010BD80F89810DC
:1045500070300AF0D4BA000010B5044601F076F9C4
:10456000014B2360204610BD1C2C010810B5044BE4
:104570000360044600F58A7007F0DDFC204610BD9C
:104580005436010810B50446FFF7F0FF20464FF4FB
:104590000C710DF08FFA204610BD70B51E460368F1
:1045A000BDF910505B6B044698472368314620469E
:1045B0009A6B9047236829462046DB6BBDE8704024
:1045C000184781807047C180704770B50368044602
:1045D000DB6A154698472368294620461B6BBDE8D1
:1045E000704018470181704741817047704770479C
:1045F000704770477047C38810B4D21A83885DF83B
:10460000044BC91A036812B25B6D09B218474FF622
:10461000FF738381038443841368C3611060704710
:10462000122070477047704790F825201AB190F813
:10463000242002B1186070470120704700220280D8
:1046400042808280C280704770B503680446DB6A8E
:10465000154698472368294620465B6EBDE87040A2
:1046600018470D20704770477047B423A0F8C03139
:104670007047B523A0F8C231704770477047704744
:1046800090F82C304BB100F16C021268C2653BB15E
:1046900000F174031B680366704700F16802F4E7D9
:1046A00000F17003F6E77047704710B4C268836882
:1046B000406812F0010F4FEA620218BF845810449C
:1046C00018BFE3585DF8044B184743682BB1836863
:1046D0002BB9C06800F001007047184670470120F0
:1046E000704710B4C2688368406812F0010F4FEA47
:1046F000620218BF8458104418BFE3585DF8044B99
:10470000184743682BB183682BB9C06800F00100DB
:104710007047184670470120704790F82D3080F898
:104720005A307047C1867047C08E70470368D3F80F
:104730008030184790F83200704710B54821044681
:104740000DF0B8F9204610BD10B5782104460DF0E3
:10475000B1F9204610BD10B5102104460DF0AAF99C
:10476000204610BD10B5102104460DF0A3F92046D7
:1047700010BD10B54FF4097104460DF09BF92046A9
:1047800010BD000070B50368C28C1E6B114B1B6816
:1047900004468DB22BB9104B104ACF2110480DF0B2
:1047A000B7F9104909888A4203DB0F4B0B4AD02125
:1047B000F4E713F812200D4B1B6853F8220003682E
:1047C000DB6A9847291A3346204609B2BDE8704093
:1047D000184700BF58970020A02D0108F02E0108AF
:1047E000E22D01085C9700206A2E010860970020E6
:1047F00070B50B7990F82C5004460E4683B985B1FC
:104800003379012B1DD1206BD8B10368DB68984741
:10481000B8B1206B036821469B68BDE8704018471B
:104820007DB1B3FA83F35B0984F82C30236820460A
:10483000D3F888309847236820465B699847002D55
:10484000DED170BD00F5A470884208B505D109F02D
:1048500071FDBDE8084000F049BD08BD094A02608D
:1048600000228280C280028142818281C2810282D2
:10487000428242618261C26180F82420012280F874
:1048800025207047184B010810B50446FFF7E6FFD6
:104890004FF6FF720023E28484F82E20084AA362B8
:1048A000A38584F82F3084F8303084F831302260CA
:1048B00084F83230A386E3866364204610BD00BFCF
:1048C000542C01082DE9F04F044685B0A046002580
:1048D0000AF0D2FBA24BE56348F8403B4046FF2676
:1048E000FFF7BCFF04F1700A9E4B236484F86660F6
:1048F000A56684F86C505046FFF7C6FF04F1B80374
:1049000018460293FFF7C0FF04F5807304F5A477FF
:1049100018460393FFF7B8FF3846FFF79FFF4FF0A5
:10492000010904F5BE7B904BC4F8705184F87451B2
:1049300084F87561C4F8785184F86C91C4F84831F2
:104940005846FFF78BFF894BC4F87C312A4684F820
:10495000A261C4F8A451C4F8A85184F8AC51C4F8B9
:10496000B051C4F8B451C4F8B851C4F8BC51294688
:104970005846FFF72AFE5946384607F09BF97C4B0C
:10498000C4F8C4317B4A7C4BC4F8CC31C4F8DC2178
:104990007A4B7B4AC4F8D431C4F8E431C4F8EC2132
:1049A000C4F8F431C4F80432C4F81432754A764BB2
:1049B000C4F8FC21C4F81C32744AA4F8C0514FF466
:1049C000A073A4F8C251C4F8D051C4F8E051C4F89F
:1049D000F051C4F80052C4F80C22C4F81052C4F8C4
:1049E000205200932A46F02329464046C4F8C84185
:1049F000C4F8D841C4F8E841C4F8F841C4F8084202
:104A0000C4F81842FFF7C9FD2A46294628460AF08D
:104A1000F5FD9C23A066009350460D23522272217F
:104A2000FFF7BBFD3246314630460AF0E7FDA4F8F9
:104A30009C50C4F8980084F8A09084F89E5050468A
:104A40004FF0020108F0EEFBC623009302980D23FD
:104A50003D227221FFF7A1FD3246314630460AF071
:104A6000CDFDA4F8E450C4F8E00084F8E89084F8A0
:104A7000E6504946029808F0D5FB03989A22732124
:104A8000FFF7A3FD3246314630460AF0B7FDA4F8E1
:104A90002C51C4F8280184F8309184F82E5129460D
:104AA000039808F0BFFB4FF4A07300932A462946F1
:104AB0005846F023FFF771FD052384F8AC319922A5
:104AC000662128460AF09AFDCC2283469921284681
:104AD0000AF094FD66228146332128460AF08EFDB5
:104AE00099220646662133200AF088FDC4F8B0B149
:104AF000C4F8BC01C4F8B4913846C4F8B861FFF7F3
:104B0000BFFD4FF4A0732A4600936FF09A01384618
:104B1000F023FFF742FDD4F8483184F87551384648
:104B2000D3F88C309847251D04F5E273C4F878312A
:104B30004146284607F0BEF85146284607F0BAF825
:104B40000299284607F0B6F80399284607F0B2F80C
:104B50002846394607F0AEF8204605B0BDE8F08F8C
:104B6000C42E0108F0470108E02C01085C48010848
:104B7000782D01086B46000845480008902D010873
:104B8000E14C0008734600087B460008054D00080C
:104B900070B590F832300446002B3AD0808EE18E0A
:104BA000884202DA0130A08670BD238F5A189042E5
:104BB00013D8658FA28F401A521B12B20021256CA8
:104BC00080B2A84794F83A30184484F82E00204662
:104BD00009F095FFA38E0133A386E38E218FA28E69
:104BE0000B449A4215D9002384F83230238709F008
:104BF000A1FB214609F0D4FB606C50B10368DB686F
:104C0000984730B1606C036821469B68BDE87040EE
:104C1000184770BD08B5FFF7BBFF08BDF8B51E46C5
:104C200090F8323004460F46154623B909F082FB4E
:104C3000214609F085FB0023A38694F82E30638774
:104C4000012384F83230E38EA787258726641BB9B9
:104C500015B92046FFF79CFFF8BD000010B5B0F86D
:104C6000C011044681B1013989B2A0F8C01159B907
:104C7000C0F844110F4B3C2200F58070FFF7CEFFC7
:104C800004F5F273C4F84431B4F8C21181B10139AA
:104C900089B2A4F8C21159B9064BC4F8FC103C22E1
:104CA00004F1B800FFF7BAFF04F50173C4F8FC3053
:104CB00010BD00BF4DF4000810B500230446C0F835
:104CC00044313C22054BFF2100F58070FFF7A6FF21
:104CD00004F5EA73C4F8443110BD00BF49F400087C
:104CE00010B500230446C0F8FC303C22044BFF21E1
:104CF000B830FFF793FF04F5FA73C4F8FC3010BD29
:104D000049F4000810B500230446C0F8B4303C2232
:104D1000044BFF217030FFF781FF04F50573C4F8E1
:104D2000B43010BD49F400087047704741607047C7
:104D30007047704701230372704770477047704790
:104D4000704710B4C2688368406812F0010F4FEAE0
:104D5000620218BF8458104418BFE3585DF8044B32
:104D6000184743682BB183682BB9C06800F0010075
:104D700070471846704701207047704743681A68AB
:104D800000F12801926E1846104700001FB50A4B2B
:104D900004468DE81800182302934068012303930A
:104DA00003686946DB6F98476068036804F128016F
:104DB0005B6E984704B010BD9C2F0108704700003F
:104DC00010B5064AB2F90040054A8480B2F90010D5
:104DD000C18000220280428010BD00BFEC960020FE
:104DE000EE96002010B4C2688368406812F0010F8C
:104DF0004FEA620218BF8458104418BFE3585DF8A8
:104E0000044B184743682BB183682BB9C06800F086
:104E1000010070471846704701207047C2688368D8
:104E2000406812F0010F4FEA620218BF8158104427
:104E300018BFCB58184743682BB183682BB9C0689B
:104E400000F001007047184670470120704710B508
:104E50000C2104460CF02EFE204610BD10B54FF478
:104E6000A87104460CF026FE204610BD10B5102196
:104E700004460CF01FFE204610BD10B52821044644
:104E80000CF018FE204610BD10B5102104460CF0A1
:104E900011FE204610BD10B5502104460CF00AFE4C
:104EA000204610BD10B5102104460CF003FE20462C
:104EB00010BD70B516460C46054609F03BFA09F0E0
:104EC00086FA306810B10368DB689847306810B123
:104ED00003681B689847286810B103685B699847A6
:104EE000206810B103685B689847286810B10368B0
:104EF0001B689847206820B10368BDE870409B6834
:104F0000184770BD70B503680E46DB681446054649
:104F10009847336830461B689847214628460AF070
:104F200029FA236820461B69984709F003FA0368A9
:104F3000BDE870409B6A184710B403460846DA6B18
:104F40008A4218D093F85020032A12D8DFE802F0E2
:104F50000B0B02020268B3F95610546D002223466F
:104F60005DF8044B184702680021546DB3F95620D0
:104F7000F5E701221A725DF8044B704710B403463E
:104F800008461A7F032A12D8DFE802F00B0B020250
:104F90000268B3F92210546D002223465DF8044BD9
:104FA000184702680021546DB3F92220F5E7012269
:104FB0001A725DF8044B7047054B1B7833B1436898
:104FC0001A6800F10C01926E18461047704700BF36
:104FD000F7960020034B1A88036852425B6D12B2A9
:104FE00000211847EE96002010B490F850200B4690
:104FF000032A22D8DFE802F0151A020D10491A68B8
:10500000B1F90010546D0022184623465DF8044B98
:1050100018470B4A11881A684942546D09B2002298
:10502000F2E718465DF8044BFFF7D4BF1A68546DD9
:10503000044A0021B2F90020E6E75DF8044B70470E
:10504000EC960020EE96002010B4027F0B46032A57
:1050500022D8DFE802F0151A020D11491A68B1F9D9
:105060000010546D0022184623465DF8044B184783
:105070000B4A11881A684942546D09B20022F2E7BE
:1050800018465DF8044BFFF7A5BF1A68546D054A32
:105090000021B2F90020E6E75DF8044B704700BF3D
:1050A000EC960020EE960020F0B50446807F637FEA
:1050B0000130C0B2984287B0A07730DCB4F920202C
:1050C00000210AF073F982B212F001032DD04FF6DD
:1050D000FF710028D8BF0B4613446384B4F9222023
:1050E000A38CA284D31AA27F9BB219B2012A618435
:1050F00040D12D4A1278002A3CD00022ADF8082079
:10510000ADF80A20ADF80C20ADF80E20227F274E16
:10511000274D032A12D8DFE802F039410A3401236F
:1051200023720023A37707B0F0BD6084D6E73288EE
:105130001344ADF80C302B88ADF80E301D4F386895
:1051400003689B6A98473288ADF814202A88ADF826
:1051500016203A6800239568ADF81030ADF812308B
:105160002A680193FF2300931669014602AB04AA43
:105170002846B0476068036804F10C01DB6F98476C
:10518000D1E73288ADF80810D31AD2E73288ADF8EB
:105190000C202A88ADF80A10D31ACDE73288ADF872
:1051A0000C202A881344C7E7F6960020EC960020CE
:1051B000EE960020F896002010B5294B1B78044687
:1051C00013B90123037210BD90F8520094F85130C6
:1051D0000130C0B2984284F8520018DCB4F954206F
:1051E00000210AF0E3F882B212F0010315D04FF665
:1051F000FF710028D8BF0B461344A4F8563094F82A
:105200005030032B29D8DFE803F01F1F0B0B0123BD
:105210002372002384F8523010BDA4F85600EEE744
:10522000B4F85610238AC91A09B2A4F856100022FD
:1052300004F10C0009F095FC6068036804F140017A
:10524000DB6FBDE810401847B4F85620638AD21AC5
:1052500012B2A4F856200021EAE701232372EBE7FB
:10526000F79600201FB50C4B1B7804468BB10B4BF7
:1052700040688DE818001823029301230393036804
:105280006946DB6F98476068036804F10C015B6E48
:10529000984704B010BD00BFF796002048300108C1
:1052A00070B504460D46164609F0AAF80C4BC4F832
:1052B00048611C600B4B236000200B4BC4F830018D
:1052C000C4F83401C4F83C01C4F84001C4F84401F6
:1052D000C4F83831C4F84C5100F0E6FC204670BDEB
:1052E00054970020402F0108282F0108064BC0F8D2
:1052F00040310023C0F8443100F59C73C0F83C01F4
:10530000C0F83431704700BF61570008064BC0F841
:1053100040310023C0F8443100F59C73C0F83C01D3
:10532000C0F83431704700BF29540008064BC0F85C
:1053300040310023C0F8443100F59C73C0F83C01B3
:10534000C0F83431704700BF995500082DE9F04787
:1053500080469068089F9A4603681B6A89461446EF
:105360009847B0F5097F05D2294B2A4AC2212A481D
:105370000CF0CEFB606803681B6A98470F2803D8BF
:10538000264B244AC321F2E7E06803681B6A98476A
:105390000B2803D8224B1F4AC421E8E7524649464E
:1053A0004046FFF786FDE068036800215B6A984786
:1053B000054620B10023436003721A4B0360A068C6
:1053C000036800215B6A9847064608B1FFF736F884
:1053D0006068036800215B6A9847044610B1314653
:1053E000FFF746F8CAF80050C9F80040C8F8006056
:1053F0005CB1231D3B603046A7602A46F46321461A
:10540000FFF780FD2046BDE8F0872346F2E700BFA6
:1054100080300108DC3201080E31010896310108A4
:10542000393201087C2F010807B5D0F84C310093C0
:10543000D0F84821044B00F598710448FFF786FF27
:1054400003B05DF804FB00BF509700204C9700208C
:105450002DE9F347074690680A9E994603681B6A40
:10546000884615469847B0F5097F05D2404B414A1A
:10547000C22141480CF04CFB686803681B6A9847DE
:105480000F2803D83D4B3B4AC321F2E7E868036885
:105490001B6A98474F2803D8394B364AC421E8E79E
:1054A0004A4641463846FFF704FDE8680368002194
:1054B0005B6A98470446002830D0324B0360324B79
:1054C000C36000221C2342600272206143610123F9
:1054D000836180F84D302D4B83622D4B82771B8882
:1054E00042840221017714214177594201842949DC
:1054F0008284B1F900108285C28502864286828646
:10550000C28602874287C2630264426480F84C20EC
:105510001BB2009128301146FFF73FF8A8680368D6
:1055200000215B6A9847824608B1FEF787FF6868EA
:10553000036800215B6A9847054610B15146FEF7A3
:1055400097FFC9F80040C8F80050C7F800A06DB137
:105550002B1D33605046AE602246CAF83C502946A7
:10556000FFF7D0FC284602B0BDE8F0872B46F0E7F5
:1055700080300108E03301080E310108963101083E
:1055800039320108203001089C2F0108B42F01088E
:10559000EC960020EE96002007B5D0F84C31009331
:1055A000D0F84821044B00F598710448FFF750FFEC
:1055B00003B05DF804FB00BF509700204C9700201B
:1055C00010B5044B044640F80C3B07F0B9FC2046EC
:1055D00010BD00BF6030010810B50446FFF7F0FFB2
:1055E000204658210CF066FA204610BD2DE9F04FF8
:1055F000814690689B46036885B01B6A8A461546BB
:105600009847B0F50C7F05D24B4B4C4AC2214C4811
:105610000CF07EFA686803681B6A98470F2803D865
:10562000484B464AC321F2E7E86803681B6A98477B
:10563000572803D8444B414AC421E8E75A4651460B
:105640004846FFF736FCE868036800215B6A984724
:10565000044600283FD0064600223C4B42600272BE
:1056600046F80C3B3046039207F0D4FC384B2364D9
:105670001C23A3640123E364022384F85030142321
:1056800084F85130334B039A1B78E663646484F8E2
:105690005220A4F85620F3B12F4FDFF8C080B7F99D
:1056A0000010B8F90030009130461146FEF775FF42
:1056B000304607F047FC94F85030032B37D8DFE82A
:1056C00003F032340206B8F800305B4201E0B8F86B
:1056D0000030A4F85430A868036800215B6A98473A
:1056E000064608B1FEF738FF6868036800215B6A68
:1056F0009847054610B13146FEF70EFFCBF8004043
:10570000CAF80050C9F80060A5B12B1D0E9A3046AA
:1057100013602946AA60F5632246FFF7F3FB28468B
:1057200005B0BDE8F08F3B88D3E73B88CDE7012388
:105730002372D0E72B46E9E78030010800350108E5
:105740000E31010896310108393201086030010834
:1057500048300108F7960020EE960020EC960020D5
:1057600007B5D0F84C310093D0F84821044B00F530
:1057700098710448FFF73AFF03B05DF804FB00BFDF
:10578000509700204C970020704770477047704733
:1057900030B4C4688368406814F0010F4FEA6404B1
:1057A00018BF0559204418BFEB5830BC1847436850
:1057B0002BB183682BB9C06800F001007047184610
:1057C00070470120704710B4C2688368406812F0C7
:1057D000010F4FEA620218BF8458104418BFE35803
:1057E0005DF8044B184743682BB183682BB9C06838
:1057F00000F001007047184670470120704710B54F
:10580000102104460CF056F9204610BD10B51021A9
:1058100004460CF04FF9204610BD10B400F58A7410
:105820008C4205D103685DF8044BDB6A11461847CA
:105830005DF8044B70479C30884208B505D108F0EC
:1058400079FDBDE80840FFF771BD08BD2DE9F04FB7
:10585000044689B0A146002509F00EFC8B4BE56398
:1058600049F8403B4846FEF7F9FF0DF1200A884B06
:10587000236404F170084FF6FF764FF0FF332AF8E7
:10588000046D84F86630A56684F86C504046FEF7D7
:10589000E5FF804B236704F19C075146A4F896600E
:1058A00084F89860404607F0EAFD3846FEF7D6FFD8
:1058B0004FF0FF3384F8C9304FF0010304F1D00BEF
:1058C00084F8C030744BC4F8C45084F8C850C4F88D
:1058D000CC50C4F89C305846FEF7C0FF6F4BC4F85C
:1058E000D0304FF0FF3384F8F6302A46C4F8F85031
:1058F000C4F8FC5084F80051C4F80451C4F80851AD
:10590000C4F80C51C4F810512946584604F58A765B
:10591000FEF75BFE5946384606F0CCF9304606F0F5
:1059200085FD5F4BC4F810325E4BC4F818325E4BF5
:10593000C4F820325D4BC4F828324FF4A073C4F889
:105940001C52C4F82C5200932A46F023294648469C
:10595000C4F81442C4F82442FEF71FFEDA22D6210E
:10596000D52009F04BFE2A46A06621214046FEF7CD
:105970002CFE51464046ADF81C5007F080FD4FF418
:10598000A07300932A4629465846CF23FEF705FE0A
:10599000052384F8003199226621284609F02EFE5D
:1059A000CC2202909921284609F028FE6622039015
:1059B0003321284609F022FE9922834666213320AE
:1059C00009F01CFE029BC4F80431039BC4F80831A3
:1059D000C4F80CB1C4F810013846FEF751FE4FF47C
:1059E000A0732A46009321213846CF23FEF7D5FD28
:1059F000D4F89C3084F8C9503846D3F88C30984796
:105A000004F50473C4F8CC30294630464722FEF72B
:105A1000DCFD0223ADF814304FF001034FF0030B0F
:105A2000ADF81C3006AA534605A93046ADF818B0AB
:105A300006F052FD7D23019300952B465A463046D1
:105A4000072106F0EDFBFF222946304606F0EAFA70
:105A50002946304606F070FA251D04F50873C4F88F
:105A60000C324946284606F025F94146284606F0FC
:105A700021F93946284606F01DF92846314606F038
:105A800019F9204609B0BDE8F08F00BF543601086F
:105A9000F0470108C8480108E02C01085C480108EB
:105AA00024360108375800083C3601081B58000806
:105AB00010B5044B0360044600F58A7006F03BFA0B
:105AC000204610BD5436010810B50446FFF7F0FF1C
:105AD00020464FF40C710BF0EDFF204610BD7047CF
:105AE00030B5154D2C78BFF35B8F14F0010489B0ED
:105AF0001FD128460BF0E0FFD8B13F2306930F4B90
:105B000005930F4B049301230393022204238DE892
:105B10000C000C49079418220A2302940A4809F041
:105B2000B3FC28460BF0D4FF084A094906480BF09D
:105B3000BCFF054809B030BD2C030020F05201081D
:105B4000AC55010858540108380300200002002019
:105B5000DF5A000830B5144D2C78BFF35B8F14F07A
:105B6000010489B01DD128460BF0A6FFC8B13F2320
:105B700006930E4B05930E4B0493042301220D490B
:105B80000193079414230394029400940A4809F0A3
:105B90007BFC28460BF09CFF084A094906480BF09D
:105BA00084FF054809B030BD30030020A855010826
:105BB0000C540108A85701085803002000020020D7
:105BC000DF5A000830B5144D2C78BFF35B8F14F00A
:105BD000010489B01DD128460BF06EFFC8B13F23E8
:105BE00006930E4B05930E4B0493042301220D499B
:105BF0000193079428230394029400940A4809F01F
:105C000043FC28460BF064FF084A094906480BF09C
:105C10004CFF054809B030BD34030020545401083E
:105C2000F452010898570108780300200002002070
:105C3000DF5A000810B5202104460BF03BFF204638
:105C400010BD7047012906D003D3022905D00020DA
:105C50007047FFF77FBFFFF7B5BFFFF741BF10B534
:105C6000042104460BF026FF204610BD0048704773
:105C700098360108042070470048704708E603087A
:105C800003207047004870479803002010B5FFF7C5
:105C900061FF044C2060FFF795FF6060FFF720FF75
:105CA000A06010BD9803002038B50A4B0A4A18803E
:105CB0000A4B1A60FFF7E0FF0546FFF7E3FF0446D3
:105CC000FFF7DEFF064B1D60064B1C60064B18807D
:105CD00038BD00BFB403002068E50308B803002006
:105CE00058970020609700205C970020014B024AE3
:105CF0001A607047B803002068E50308032208B55E
:105D00000021012001F0A6F8074A106020B100230D
:105D10001A46194601F0C2F801210022084601F096
:105D200099F8024B186008BDBC030020C003002096
:105D3000034800234FF0FF321946006801F01ABAF9
:105D4000BC030020034800231A461946006801F0EE
:105D5000A5B800BFBC030020034800231A4619461B
:105D6000006801F007BA00BFBC03002007B502A914
:105D7000002341F8043D084B186801F0A7F9019B86
:105D80003BB1064B4FF080521A60BFF34F8FBFF309
:105D90006F8F03B05DF804FBBC03002004ED00E04E
:105DA00007B50B4B186880B102AA002342F8043DE6
:105DB000084901F029F9019B3BB1074B4FF0805294
:105DC0001A60BFF34F8FBFF36F8F03B05DF804FB12
:105DD000C00300201402002004ED00E070B5084D5F
:105DE000084C00231A462946206801F0C3F92946C9
:105DF000206800234FF0FF32BDE8704001F0BAB9CF
:105E000014020020C0030020024B18680368DB68FE
:105E1000184700BFF896002007B500F0B9F800F069
:105E2000FBFA032200238DE80C00044904484FF4D8
:105E3000806201F0FBFA01F0D1FBFEE7E8360108D1
:105E4000095E00087047704770477047012070472F
:105E500058207047582303FB01000830704758232F
:105E600003FB010008307047012070474FF40C70AD
:105E700070474FF40C7303FB0100083070474FF478
:105E80000C7303FB0100083070470120704710209D
:105E9000704700EB01100830704700EB011008302C
:105EA00070470846FFF732BA10B5034B036004464B
:105EB00005F056FE204610BD6037010810B50446B7
:105EC000FFF7F2FF204660210BF0F4FD204610BDE5
:105ED00010B5034B0360044605F042FE204610BD9A
:105EE0002C37010810B50446FFF7F2FF20464FF4A7
:105EF0000E710BF0DFFD204610BD000010B5034B06
:105F00000360044605F02CFE204610BDF83601085B
:105F100010B50446FFF7F2FF204618210BF0CAFD2A
:105F2000204610BD10B5084B0360044600F51970FB
:105F3000FFF7BAFF04F12C00FFF7CAFF04F11400C9
:105F4000FFF7DCFF204610BD9437010810B504466A
:105F5000FFF7E8FF20464FF483610BF0ABFD2046CE
:105F600010BD10B5042104460BF0A4FD204610BD61
:105F700008B5024B1B689B6A984708BD240900209E
:105F800008B5024B1B68DB6A984708BD240900204E
:105F90002DE9F04F9FB09C4C9C4E002503F0C8F9B2
:105FA0000295236C43F080532364236C03F08053E9
:105FB0000293974B03951A6842F440421A601B689B
:105FC00003F4404303934FF4803312934FF4800360
:105FD00002274FF0010B18934FF4A87208234FF0DB
:105FE000070811A819930193CDF844B01A92179796
:105FF0001B97CDF8708004F071FB0F220C924FF4C8
:10600000A0594FF4805205210CA810920D970E95BF
:10601000CDF83C9004F008FD7E4A7F4832601D2296
:10602000019BF26140F20D127262036040F2431272
:10603000C023B262036140F2171204234FF0090A31
:10604000C6F818B0F2624FF0030B40F247128361BA
:106050004FF400333263C6F814A0C6F820B086F8B7
:10606000365086F8345086F83550436204F0A8FD67
:1060700004957560B560F5603561636C674843F001
:1060800080636364636C03F0806304930595236B02
:1060900043F400032363236B03F400030593069585
:1060A000236B43F480532363236B03F480530693E1
:1060B0000795236B43F001032363236B03F0010374
:1060C00007930895236B3B432363236B3B40089363
:1060D0000995236B43F004032363236B03F004034C
:1060E00009930A95236B43F008032363236B03F0A2
:1060F00008030A930B95236B43F020032363236B60
:1061000003F020030B930C95236B43F040032363B0
:10611000236B129703F040030C9341F6580311933D
:1061200011A90E2315931395149703F075FC4FF4E2
:10613000706311933A4B0193184611A903F06CFC5C
:106140004FF4986211A93748119203F065FC482278
:1061500011A935481192A4F5005403F05DFC4FF4E9
:10616000806211A93148119203F056FC4FF40C6281
:1061700011A92046119203F04FFC019BCDF844B0C9
:10618000184611A9CDF854A003F046FC11A92046E9
:10619000CDF8449003F040FC304604F0E1F9244A85
:1061A000244B13601B68984702F0DAFF1195FFF744
:1061B000DFFE13951290FFF7E3FE4FF050431A9362
:1061C000FF2316934FF4C0631893149015971795F7
:1061D0008DF874508DF875508DF87650CDF8648038
:1061E000FFF7C6FE1B90FFF7CBFE2A4611A91C90B5
:1061F000304604F02FFA304604F056FA00F0E0F989
:106200001FB0BDE8F08F00BF003802404C080020EE
:106210000070004000680140F408002000000240C7
:106220000004024000080240000C0240001402403A
:10623000240900202C0200202DE9F743614E357817
:10624000BFF35B8F15F001058046894617461C4653
:1062500056D130460BF030FC002851D0A3B25A4C36
:10626000BDF82800C4F80480012284F8452084F891
:10627000462084F8542084F85720544AC4F80890E3
:10628000E7602561656125836583A583E5832584B2
:106290006584A58484F82650A562A5856563A563F9
:1062A000E563256484F8445084F8555084F85650CA
:1062B00084F8585084F8595084F85A5084F85B5048
:1062C00084F85C5025661460414A84F86550138058
:1062D000404A1080404A1570404A83421380404A29
:1062E000ACBF00230123108084F8303030463D4B92
:1062F00023600BF0EDFB3C4A3C4920460BF0D5FBFC
:1063000031483B4F06F0EEFAFFF7B0FC0446FFF7CA
:10631000B1FC0D9B009301460C9B0B9A204609F0A3
:106320005BFA344B344A1A600020FFF7BDFC334857
:1063300009F0BCF93B78BFF35B8FDB0738D43846F4
:106340000BF0BAFB002833D02D4E2E4B336006F5F0
:10635000317806F1140006F12C0506F51974706009
:10636000B560F460C6F8108005F0FCFB264B736145
:10637000284605F0F7FB254BF362204605F0F2FBBB
:10638000234BC6F86432324606F214414046FEF70B
:10639000A9F806F21440FEF779F84046FEF7B6FF7A
:1063A00038460BF095FB104A1A4930460BF07DFB3E
:1063B00007F0C0FF0146044806F0D6F9024803B0D2
:1063C000BDE8F083C4030020C8030020F896002035
:1063D000EC960020EE960020F0960020F296002029
:1063E000F4960020F438010800020020475E0008FF
:1063F0003004002064970020D413002018020020ED
:106400003404002094370108F83601082C370108BD
:1064100060370108255F0008F0B585B000264FF40D
:10642000A0730396029601960093124A12491348EC
:10643000F023FFF701FF124B01251D700368009543
:1064400004465F6F10222B464FF05041B84784F846
:10645000586084F846600B4E84F84550022384F857
:106460005430304600F068F8266184F85C5005B07E
:10647000F0BD00BF1C0200202002002028090020DF
:1064800018140020C813002010B5682104460BF032
:1064900011FB204610BD10B50C2104460BF00AFB81
:1064A000204610BD10B5042104460BF003FB204626
:1064B00010BD000038B5124C124D13491348224646
:1064C0000BF0F3FA284600F063FA224610492846FA
:1064D0000BF0EBFA22460F490F480BF0E6FA0F4893
:1064E0000F4900234360224683600E4B03600BF08C
:1064F000DCFA22460C490D48BDE838400BF0D5BA0D
:106500000002002028090020435C00081802002037
:10651000556600084B5E00081C020020C8130020CE
:10652000495E0008A8370108455E000820020020E7
:106530004068704741607047054A136843F08073B4
:106540001360044A136843F001031360704700BFEF
:10655000FCED00E0001000E0521A02EB5302B2FB27
:10656000F3F07047014B1868704700BF041000E05B
:1065700010B5036804461B6931B19847A268636887
:106580009B1A1844606010BD9847A06010BD0000C1
:10659000044A0121115408B902F078BB0128FBD04C
:1065A000704700BF19140020044A0021115408B993
:1065B00002F05EBB0128FBD0704700BF1914002019
:1065C00008B5002002F018FB012002F015FB0020A6
:1065D000FFF7EAFF0120BDE80840FFF7E5BF000034
:1065E000034B1B5C0BB1FFF7DFBFFFF7D1BF00BF51
:1065F0001914002010B5FFF7BBFC0446FFF7C0FCE0
:1066000081B2A0B2BDE8104002F0E8BD37B56846DF
:106610000D46144602F004FEBDF8000030B1BDF88E
:1066200002302B60BDF804302360012003B030BD80
:1066300003681B6C184703685B6A184770470000C3
:10664000034B1B78002B40F2EF1018BF002070475F
:106650001D14002010B5064B03600446054803F0E6
:10666000C7F8054B4FF08062C3F88820204610BD64
:10667000E8370108D813002000E100E010B5044617
:10668000FFF7E8FF20464FF42A610BF013FA20468B
:1066900010BD000010B5074C074B2360204602F0E8
:1066A000D8FF064B2361064B6361064B4FF08062B7
:1066B0009A6010BDD813002000B00240C9660008DF
:1066C0003D66000800E100E0024B1B685868036863
:1066D0005B691847F89600202DE9F3410D68202DDD
:1066E0000C4600F0A480402D00F0A1802A1F5642E5
:1066F0005641802D00F09D80A5F580735D425D417F
:106700005E4B1B68986803681B6A98472368402B98
:1067100000F0A38000F28F80042B00F09780202BE4
:1067200000F09B8010280CBF4FF0020E4FF0010EBE
:106730000021B4F80CC0B4F81280514BA8EB0C0245
:10674000DA601028A289D3F800C059600CBF022774
:1067500001279F60A8EB0208DCF8002022F44032F9
:106760001143CCF80010D3F800C0C3F82CE0DCF8DB
:10677000341021F007013943CCF83410DCF8402004
:1067800022F47F5222F03F0242EA0802CCF8402075
:10679000228AA189521A9A620EB9002D34D0227E23
:1067A000FF2A1FBF02221A63227E5A6304BF0022FF
:1067B0001A6305B3102894F818E0626953D102F007
:1067C0001F014FF01F0CC2F3C420C1EB012191FB4C
:1067D000FCF141EA0E61C0EB0020C2F3451290FBD0
:1067E000FCF041EA0041C2EB02223F2092FBF0F2B2
:1067F00041EA02225A63A189628A2148DF61521A62
:106800009A61002103F0BCF801211D4803F0B8F89B
:10681000A389E28906B94DB30093A3680192616828
:1068200017481A4602F063FF02B0BDE8F081012666
:1068300062E7012564E7802B12D0B3F5807F7FF4F7
:1068400071AF4FF0090E4FF4003172E710280CBF02
:106850004FF0020E4FF0010EF5E74FF0000EF2E799
:106860004FF00A0EEFE742EA0E62C3E7009261685A
:10687000A268034802F01CFFD6E700BFF89600208C
:10688000D8130020F7B5404B1B68986803681B6A53
:106890000D46984710286B69297E71D103F01F02BD
:1068A000C2EB02221F2092FBF0F4C3F3C42244EA9D
:1068B0000164C2EB0222C3F3451392FBF0F244EAF7
:1068C0000244C3EB03233F2293FBF2F3022244EA88
:1068D00003242B68A9892D48082B6B8A8260A3EBBF
:1068E0000101C160AF890CBF4FF400364FF4403650
:1068F000DF1B03684660196821F440313143196099
:10690000D0F800E0DEF8341021F007011143CEF892
:106910003410DEF8403023F47F5323F03F033B4331
:10692000B6F5003FCEF840301FD1012303630923A1
:106930004463C362A9896B8AC2615B1A83610021C7
:1069400003F01EF80121114803F01AF8B6F5003FD4
:10695000AB89EA890DD1A968019200930A460B46DA
:106960000A4802F0C4FE03B0F0BD0023C262836295
:10697000E8E700922146AA68044802F099FEF2E78F
:1069800043EA01640122A4E7F8960020D81300200E
:1069900070B505462C460A4B0C30002668602E72F6
:1069A0006E7244F8203B6022214606F0B7FA05F5E6
:1069B0002A6366611C34A342FBD1284670BD00BF28
:1069C000E8370108012380F8641080F865307047CB
:1069D000406803681B68184700207047436B0BB181
:1069E0000846184770470000014B986A704700BF7F
:1069F00084680140024B0122996243F8602C704781
:106A000084680140064B586CDB68C3F30A0382B20A
:106A100001339A42A6BFC01A80B20020704700BF5F
:106A200000680140034B902283F85A2383F85823CF
:106A3000704700BF00E100E00849094ACB680948F7
:106A4000C3F30A03013B9BB213800A69C2F30A0233
:106A5000013A02800B6403234B63704700680140D6
:106A6000201400201E140020064B4FF08072C3F843
:106A700088204FF08062C3F888204FF00072C3F87E
:106A80008820704700E100E0054B4FF080729A606B
:106A90004FF080629A604FF000729A60704700BFBA
:106AA00000E100E010B5044606F00CF9236820462A
:106AB000D3F88430BDE810401847000008B531B95C
:106AC0000A4B0B4A0B484FF443710BF021F88163DA
:106AD000C26309490364003218BF01220A700033FF
:106AE000064A18BF0123137008BD00BF49380108CA
:106AF000E839010881380108F6960020F796002051
:106B0000F8B5541EA6B21F2E9DF8185009D80124BE
:106B1000B44014F0803F144F144E09D114F00B0F01
:106B200017D1134B134A14484FF439710AF0F0FF90
:106B30003F883488D2087C43624381637BB111442F
:106B4000C16375B1114401640C4A13700C4B1D7084
:106B5000F8BD3C8862430732D2103488ECE7C36347
:106B6000EFE70564F0E700BFEC960020EE9600200A
:106B70002C3801089439010881380108F696002064
:106B8000F796002030B590F8642090F830309A42A3
:106B90000F4B1A780DD05AB90E4A0F490F48148876
:106BA0000F4D0C80018811802980048001221A7009
:106BB00030BD002AFCD00948074A01881180054AE7
:106BC000074D14882C80118004800022EFE700BF5D
:106BD000F0960020EC960020F2960020EE96002021
:106BE000F496002010B5154B9A6BD20724D50122DC
:106BF000DA63134A196C1288124C914212D1124A6C
:106C000012881A64226892F85630013382F856309E
:106C1000FFF7C6F8206806F055F80020BDE81040E0
:106C2000FFF7B6BC1A640020FFF7BEFC20680368BB
:106C3000BDE810409B69184710BD00BF00680140C7
:106C400020140020F89600201E14002000F10803F4
:106C500043604FF0FF32C360036100238260036032
:106C6000704700230361704743684B609A688A60ED
:106C70009A68516099600861036801330360704746
:106C80000A68531C30B50AD103695A684A6091609A
:106C90008B605960086103680133036030BD00F107
:106CA00008035C682568AA42EFD32346F9E74268E7
:106CB0008168036991608268416851605A689042B6
:106CC00004BF82685A6000220261186801381860A7
:106CD000704770B51546026C866B044642B905686C
:106CE0009DB9406800F066FF65600136A66370BD1F
:106CF0006DB980680AF076FFA368226C134462685D
:106D0000A360934201D32368A3600020EDE7C0682D
:106D10000AF068FF236CE26821685B421A448A42E9
:106D2000E2603EBF62689B18E360022DEDD10EB1B8
:106D3000013EEAE73046D8E7034610B41A6C08462D
:106D400062B1D9685C681144A142D96024BF196856
:106D5000D960D9685DF8044B0AF044BF5DF8044B74
:106D6000704770B5044601F01DFA94F8455004F1DF
:106D700024066DB2002D14DCFF2384F8453001F0A9
:106D800033FA01F00FFA94F8445004F110066DB292
:106D9000002D12DCFF2384F84430BDE8704001F080
:106DA00023BA636A002BE7D0304600F01BFE08B11F
:106DB00000F0A4FE013D6DB2DCE72369002BE9D0B1
:106DC000304600F00FFE08B100F098FE013D6DB2B4
:106DD000DEE7000038B50D46044640B94FF05003D9
:106DE00083F31188BFF36F8FBFF34F8FFEE701F07E
:106DF000D9F9206CE36B2268A2604343D1181B1AB7
:106E000013446160E3600021FF23A16384F84430F0
:106E100084F8453095B9236963B104F1100000F09E
:106E2000E1FD38B10A4B4FF080521A60BFF34F8F2B
:106E3000BFF36F8F01F0D8F9012038BD04F11000C5
:106E4000FFF704FF04F12400FFF700FFF2E700BFA3
:106E500004ED00E0F8B50D461746064640B94FF080
:106E6000500383F31188BFF36F8FBFF34F8FFEE79B
:106E70004843503001F0BAF8044648B155B9206093
:106E8000E663256401212046FFF7A4FF84F84C70D7
:106E90002046F8BD00F150030360F1E72DE9FF47FC
:106EA000894601921F46044640B94FF0500383F3D0
:106EB0001188BFF36F8FBFF34F8FFEE7002940F0BB
:106EC0008880036C002B00F084804FF0500383F324
:106ED0001188BFF36F8FBFF34F8FFEE7019E002E27
:106EE00000F082804FF0500383F31188BFF36F8F5F
:106EF000BFF34F8FFEE7019D1DB901F075F900202A
:106F000058E016B902A800F0AFFD01F06DF900F0ED
:106F1000A5FB01F047F994F84430FF2B08BF84F833
:106F2000448094F84530FF2B08BF84F8458001F079
:106F30005BF901A902A800F0A7FD002843D101F0E8
:106F400031F9A66BE56B01F04FF9AE4235D10199ED
:106F500004F1100000F00EFD2046FFF702FF00F0E4
:106F60001DFC38B94FF08053CAF80030BFF34F8F83
:106F7000BFF36F8F012601F015F9A26BE36B9A4204
:106F800001D3022FB7D13A4649462046FFF7A1FE6A
:106F9000636A1BB104F1240000F024FD38B1194BE1
:106FA0004FF080521A60BFF34F8FBFF36F8F01F025
:106FB0001BF9012004B0BDE8F0872046FFF7D1FEA1
:106FC00000F0ECFBD6E72046FFF7CBFE00F0E6FB37
:106FD00095E7022F02D1E36B012B0AD100F094FD5B
:106FE00000283FF47BAF00264FF00008DFF814A024
:106FF000C1E74FF0500383F31188BFF36F8FBFF3E6
:107000004F8FFEE704ED00E02DE9F84388469146F6
:107010001F46044640B94FF0500383F31188BFF375
:107020006F8FBFF34F8FFEE709BB036CFBB14FF0CF
:10703000500383F31188BFF36F8FBFF34F8FFEE7C9
:1070400004F1240000F0CEFC002834D0B9F1000F88
:1070500031D00120C9F8000086F31188BDE8F8831B
:1070600001356DB284F8455025E00020F4E7022F89
:1070700002D1E36B012B20D101F09CF9EFF31186D3
:107080004FF0500383F31188BFF36F8FBFF34F8F1F
:10709000A26BE36B9A4201D3022FE6D194F84550DC
:1070A0003A466DB241462046FFF713FE6B1CD7D11E
:1070B000636A002BC4D10120CEE74FF0500383F365
:1070C0001188BFF36F8FBFF34F8FFEE770B50D468A
:1070D000044640B94FF0500383F31188BFF36F8F1C
:1070E000BFF34F8FFEE7036C43B14FF0500383F3C0
:1070F0001188BFF36F8FBFF34F8FFEE703680BB9A3
:10710000436873BB01F056F9EFF311864FF050035B
:1071100083F31188BFF36F8FBFF34F8FA26BE36BC5
:107120009A4201D3002014E094F8453001325BB25A
:10713000A2635A1C10D1636A0BB9012009E004F163
:10714000240000F04FFC0028F7D0002DF5D00120DE
:10715000286086F3118870BD01335BB284F8453036
:10716000EBE74FF0500383F31188BFF36F8FBFF34A
:107170004F8FFEE72DE9FF47884601929946044666
:1071800040B94FF0500383F31188BFF36F8FBFF303
:107190004F8FFEE7002940F0A580036C002B00F024
:1071A000A1804FF0500383F31188BFF36F8FBFF3BB
:1071B0004F8FFEE7019E002E00F09A804FF05003A3
:1071C00083F31188BFF36F8FBFF34F8FFEE7636ABE
:1071D000E660002B6DD004F124005FE0019D1DB935
:1071E00001F002F8284667E016B902A800F03CFC5E
:1071F00000F0FAFF00F032FA00F0D4FF94F84430C7
:10720000FF2B08BF84F8447094F84530FF2B08BF6B
:1072100084F8457000F0E8FF01A902A800F034FCF2
:10722000002852D100F0BEFFA56B00F0DDFF002D5D
:1072300045D1236833B900F0B5FF606800F074FCF5
:1072400000F0D2FF019904F1240000F093FB2046E6
:10725000FFF787FD00F0A2FA38B94FF08053CAF863
:107260000030BFF34F8FBFF36F8F012600F09AFFFE
:10727000A56B002DB2D041462046E668FFF75CFDC5
:10728000B9F1000FA3D12368013DA56313B900F044
:10729000E1FC6060236963B104F1100000F0A2FB1F
:1072A00038B1154B4FF080521A60BFF34F8FBFF3C8
:1072B0006F8F00F099FF012004B0BDE8F0872046F1
:1072C000FFF74FFD00F06AFACFE72046FFF749FDD0
:1072D00000F064FA00F066FFA56B00F085FF002D5A
:1072E000C3D17FE700F010FC00283FF463AF002615
:1072F0000027DFF804A0B9E704ED00E030B5074A45
:10730000002352F8335002EBC3041DB942F8331086
:10731000606030BD0133082BF3D130BDA097002051
:1073200070B504460D46164600F03CFF94F8443014
:10733000FF2B04BF002384F8443094F84530FF2B22
:1073400004BF002384F8453000F04EFFA36B2BB937
:107350003246294604F1240000F026FB2046BDE811
:107360007040FFF7FEBC0000064A13681968064B20
:1073700019B94FF0FF321A6070471268D268D268AC
:107380005268F8E72814002014150020F8B51B4BAC
:107390001B4E1D680446306804300F46FFF787FC1B
:1073A000334640B93168174EC96A326801208840B7
:1073B00022EA00023260621C07D137B11968124814
:1073C0000431BDE8F840FFF74FBC2C441A68A542D1
:1073D000546007D90D4A10681968BDE8F8400431B7
:1073E000FFF74EBC0A4A106819680431FFF748FCE1
:1073F000084B1A68944238BF1C60F8BD5C15002029
:1074000024140020E4140020341500202C14002043
:1074100028140020141500204FF0500383F3118826
:10742000BFF36F8FBFF34F8FFEE700002DE9F84FDA
:107430004FEA820A804650460D4699460B9E00F060
:10744000D5FD0746002800F09F80602000F0CEFDAB
:107450000446002800F0958052460763A52138466F
:107460000AF0CBFB236BAAF1040A9A442AF0070A1C
:107470006B1E04F134020F35597802F8011B13F822
:10748000011F09B1AB42F7D10A9D072D28BF07257F
:107490004FF0000B271DE562E564384684F843B0E1
:1074A000C4F850B0FFF7DDFBC5F1080504F1180082
:1074B000FFF7D7FBC4F858B02461A5616462C4F833
:1074C00054B084F85CB04A464146504600F03EFE57
:1074D000206006B1346000F065FE324B324E1A680F
:1074E000DFF8F08001321A603568002D4FD134602A
:1074F0001B68012B1DD108EB05001435FFF7A6FB17
:10750000A02DF8D1DFF8D090284D4846FFF79EFB1C
:107510002846FFF79BFB2648FFF798FB2548FFF717
:1075200095FB2548FFF792FB244BC3F80090244BB2
:107530001D60244A24491368086801331360E26A15
:107540006364012505FA02F3034314200B6000FB7A
:1075500002803946FFF788FB00F046FE1B4B1B6894
:1075600063B13368DA6AE36A9A4207D2184B4FF084
:1075700080521A60BFF34F8FBFF36F8F2846BDE86C
:10758000F88F384600F08EFD4FF0FF35F6E70F4BD1
:107590001B68002BCDD13368DA6AE36A9A4298BF40
:1075A0003460C6E7D014002024140020FC1400200E
:1075B0001C15002048150020341500202814002038
:1075C0002C140020E0140020E414002030150020CA
:1075D00004ED00E030140020E814002013B5194B2E
:1075E0000193002400942346802217491748FFF78F
:1075F0001DFF012818D100F083FB012814D14FF0A2
:10760000500383F31188BFF36F8FBFF34F8F104B7D
:107610004FF0FF321A600F4B18600F4B1C6002B026
:10762000BDE8104000F050BE013008D14FF05003CB
:1076300083F31188BFF36F8FBFF34F8FFEE702B064
:1076400010BD00BF10150020363A01088D780008E3
:1076500014150020301500205C150020024A136824
:1076600001331360704700BFDC140020014B186821
:10767000704700BF5C1500202DE9F84F3C4B1B689C
:10768000002B53D13B4B1C6801341C60BCB93A4BF6
:107690001A68126842B14FF0500383F31188BFF3A8
:1076A0006F8FBFF34F8FFEE7344A19681068186078
:1076B0001160334A136801331360FFF755FE314DF3
:1076C000314F2B689C424FF0000B3ED3DFF8A8806F
:1076D000DFF8C490D8F80020126872BB4FF0FF3278
:1076E0002A6032E006F1040A5046FFF7E0FAB16A78
:1076F00019B106F11800FFF7DAFAF06AD9F800308C
:10770000012202FA00F11943204BC9F800104FF092
:10771000140E51460EFB0030FFF7A6FA3868F16AE6
:10772000C26A914228BF4FF0010BD3E7184A136891
:10773000013313604FF0000B11E0D8F80020D2683D
:10774000D66871688C42CDD229603A680F4BD16AF5
:1077500014224A439A58022A28BF4FF0010B0D4ABF
:107760001268002A18BF4FF0010B5846BDE8F88F89
:10777000DC1400205C150020281400202C140020AC
:1077800018150020141500202414002030140020A7
:10779000D814002060150020E41400202DE9F843DF
:1077A000314C236843B94FF0500383F31188BFF382
:1077B0006F8FBFF34F8FFEE700F0F4FC2368013BAF
:1077C000236024682CB1002400F00EFD2046BDE8A3
:1077D000F883264B1B68002BF5D0DFF8A890244FC8
:1077E000DFF8A480D9F80030E3B90CB1FFF7BCFD95
:1077F000204D2C6844B1204E0127FFF73DFF00B11A
:107800003760013CF9D12C601B4B1B68002BDAD090
:107810001A4B4FF080521A60BFF34F8FBFF36F8F38
:107820000124D1E7D9F80C30DC68261D04F11800DA
:10783000FFF73DFA3046FFF73AFAE26A3968012568
:1078400005FA02F314200B4300FB028031463B6033
:10785000FFF70AFA0A4BE26A1B68DB6A9A4224BF06
:10786000054B1D60BEE700BFDC140020D0140020D3
:10787000E4140020D81400206015002004ED00E07E
:10788000241400201C1500203014002008B5174EC9
:10789000174C236863B9174B1B68012BF8D9164B9B
:1078A0004FF080521A60BFF34F8FBFF36F8FEFE737
:1078B000FFF7D4FE3568FFF771FF002DE9D000F027
:1078C00071FCF368DD68281DFFF7F1F90B4A1368B6
:1078D000013B13602368013B236000F085FC286BAB
:1078E00000F0E0FB284600F0DDFBD2E74815002061
:1078F000D41400203014002004ED00E0D014002047
:1079000010B5174B1A68174B12B101221A6010BD3F
:107910001A60154B1B68B3FA83F3DBB2C3F11F0384
:10792000142212495A4388188C5844B94FF0500316
:1079300083F31188BFF36F8FBFF34F8FFEE7446867
:107940000832646844600A44944204BF626842603A
:10795000142202FB03135B68DA68054BD6E700BF0D
:10796000DC14002060150020E414002030140020F6
:107970002414002010B50C4640B94FF0500383F397
:107980001188BFF36F8FBFF34F8FFEE7054B196868
:107990001831FFF775F920460121BDE81040FFF7C7
:1079A000F5BC00BF2414002038B50D46144640B97C
:1079B0004FF0500383F31188BFF36F8FBFF34F8FE6
:1079C000FEE7074B19681831FFF74EF9002C2146E6
:1079D0000CBF28464FF0FF30BDE83840FFF7D6BC5B
:1079E0002414002038B5C368DC6844B94FF0500354
:1079F00083F31188BFF36F8FBFF34F8FFEE704F15E
:107A000018052846FFF753F9114B1B68E3B9251DEC
:107A10002846FFF74CF90F49E26A086801239340B2
:107A200003430B600C4B1420294600FB0230FFF788
:107A30001BF90A4BE26A1B68DB6A9A4283BF084B58
:107A400001201860002038BD29460648EFE700BF36
:107A5000DC140020E4140020301400202414002042
:107A6000601500201C15002008B508B9FFF7D4FCEC
:107A7000034B1B680360034B1B68436008BD00BFDA
:107A8000181500205C15002038B50D46044640B995
:107A90004FF0500383F31188BFF36F8FBFF34F8F05
:107AA000FEE741B94FF0500383F31188BFF36F8FA6
:107AB000BFF34F8FFEE700F075FB0E4B19682B6884
:107AC0005A1C10D00C4A206812689042626801D09B
:107AD00091420DD2881A83420AD95B1A13442B6053
:107AE0002046FFF7C1FF002400F07EFB204638BD92
:107AF0000124F9E75C15002018150020014B012234
:107B00001A60704760150020054B1B6833B1054BA8
:107B10001B68002B0CBF022000207047012070471B
:107B200030150020DC1400202DE9F0410446002827
:107B300038D01D4DC36A2A68D26A934232D2826914
:107B40001A4E002AA1BF2A68D26AC2F108028261D5
:107B50001427426907FB03639A4220D100F104080D
:107B60004046FFF7A4F8124A48B9E06A4743F35980
:107B70002BB913680121814023EA010313602B68AC
:107B80001168D86AE062012383400B431360142319
:107B9000414603FB0060BDE8F041FFF765B82B6884
:107BA000DB6AC362BDE8F081241400203014002099
:107BB000E4140020F8B5044608B90020F8BD224BB3
:107BC0001B68984208D04FF0500383F31188BFF32D
:107BD0006F8FBFF34F8FFEE7036D43B94FF0500334
:107BE00083F31188BFF36F8FBFF34F8FFEE7C16A36
:107BF000C26C013B91420365DFD0002BDDD1051D36
:107C00002846FFF754F8114E114A50B9E76A14217B
:107C1000794373582BB913680120B84023EA000355
:107C20001360E36CE362C3F10801A16111680124F0
:107C300004FA03F008431060142000FB0360294697
:107C4000FFF712F82046F8BD24140020301400205D
:107C5000E4140020044B1A681AB119680A6D013245
:107C60000A651868704700BF24140020F8B50F4C4F
:107C700000F098FA2568ADB90D4F0E4E3846FEF764
:107C8000E5FF3046FEF7E2FF0B4B1F600B4B2A4629
:107C90000C210A201E60FFF7DDF8206010B10849B2
:107CA000FFF72CFBBDE8F84000F09EBA98150020C5
:107CB0006C15002080150020641500206815002038
:107CC0003B3A0108914208B5416000610AD8D21AD6
:107CD00083699A420DD2084B011D1868FEF7D0FF48
:107CE000002008BD9A4201D2994202D2011D034BE5
:107CF000F3E7012008BD00BF6815002064150020CF
:107D000007B5FFF7B3FF0D4B1B685BB10C4B01933D
:107D1000022300934FF4807200230A490A48FFF7B8
:107D200085FB40B94FF0500383F31188BFF36F8F89
:107D3000BFF34F8FFEE703B05DF804FB98150020FA
:107D40009C150020403A0108217E000830B51546F8
:107D500085B01A46034640B94FF0500383F31188AB
:107D6000BFF36F8FBFF34F8FFEE70D4C206880B1DC
:107D700005290191029503930DDCFFF7C5FE002351
:107D8000022808BF089A206818BF1A4601A9FFF701
:107D900085F805B030BD002301A9FFF735F9F8E7F4
:107DA000981500202DE9F3411B4D4FF000082B687A
:107DB0001A6832B9194A11682960136002B0BDE827
:107DC000F081DB68DC681E68271D3846FEF76FFF10
:107DD000636A20469847E369012BE8D1A3693344DD
:107DE0009E4206D26360246139462868FEF748FF48
:107DF000DDE70023CDF80080324619462046FFF724
:107E0000A5FF0028D3D14FF0500383F31188BFF3AF
:107E10006F8FBFF34F8FFEE76415002068150020B9
:107E20002DE9F04F6C4DDFF8C08189B02F462B68EB
:107E3000D3F800B0BBF1000F42D0DB68D3F800905C
:107E4000FFF70CFCFFF712FC644B1A689042824665
:107E50001E4637D20393FFF7A5FF039B0124C3F807
:107E600000A0002C7ED1BBF1000F60D0D14577D8A7
:107E7000FFF794FC3B68DB68D3F80CB00BF104000F
:107E8000FEF715FFDBF81C30012B1DD1DBF81810B5
:107E90004B46524649445846FFF714FFA0B10094A0
:107EA00023464A4621465846FFF750FF60B94FF037
:107EB000500383F31188BFF36F8FBFF34F8FFEE73B
:107EC000D946BDE70024CAE7DBF824305846984776
:107ED000DFF81091D9F8000000231A4605A9FFF732
:107EE00049F90028A3D0059B002BF3DB079C6369AD
:107EF00013B1201DFEF7DBFEFFF7B8FB3368984295
:107F0000834601D2FFF74EFF059AC6F800B0092A52
:107F1000E0D80123934013F4047A4AD113F0C70F39
:107F200023D19B06D6D5204600F0BCF8D2E72C4BD7
:107F30001B681A68B2FA82F252092A4BA9EB0A01AD
:107F40001868FFF7EDF9FFF729FC0028C0D14FF0C2
:107F50008053C8F80030BFF34F8FBFF36F8FB7E780
:107F60002246EAE7FFF71AFCB2E7A169069B5A46E8
:107F700019442046FFF7A6FE0028ABD0636A2046CE
:107F80009847E369012BA5D1A2690699CDF800A015
:107F90000A44534651462046FFF7D8FE002899D19F
:107FA0004FF0500383F31188BFF36F8FBFF34F8FF0
:107FB000FEE70699A16141B94FF0500383F31188A0
:107FC000BFF36F8FBFF34F8FFEE75B465A465944AE
:107FD0002046FFF777FE7DE764150020941500200A
:107FE000681500209815002004ED00E070B50446E7
:107FF000FFF734FB2648016871B9264B264A23F067
:10800000070313605160254A47F6F87582E822009D
:1080100083E82400012303602CB1083463071CBFEC
:1080200024F007040834621E47F6F6739A4207D814
:10803000194A136859688C4204D818498B4207D1F1
:1080400000251EE019680029F7D01A460B46F1E713
:108050001968156811605968091B102905F1080590
:108060000AD91A1951605C6056680B49086844685F
:10807000A6420AD810600A6009495B680A68D21AE9
:108080000A60FFF78BFB284670BD0146EEE700BF94
:10809000A8950020A8150020AC950020A0950020F0
:1080A0002402002038B50446C8B1A0F10805FFF746
:1080B000D5FA54F8040C0A4B1A68516888420CD857
:1080C00044F8082C074A1D6054F8043C11680B441E
:1080D0001360BDE83840FFF761BB1346ECE738BDDD
:1080E000AC950020240200200A4B1B68013308D005
:1080F0004FF0500383F31188BFF36F8FBFF34F8F9F
:10810000FEE74FF0500383F31188BFF36F8FBFF387
:108110004F8FFEE72802002006480068006880F3C1
:10812000088862B661B6BFF34F8FBFF36F8F00DF71
:1081300000BF000008ED00E0DFF80C00016841F42A
:10814000700101607047000088ED00E04FF080731F
:1081500040F8043C074B40F80C3C21F001016FF063
:10816000020340F8081C40F8202C40F8243C443816
:10817000704700BFE9800008000000000000000018
:10818000074B19680868B0E8F04F80F30988BFF31F
:108190006F8F4FF0000080F311887047AFF30080BD
:1081A000241400204FF0500383F31188BFF36F8F26
:1081B000BFF34F8F0A4A13680133012B13600DD1AF
:1081C000084B1B6813F0FF0F08D04FF0500383F3E8
:1081D0001188BFF36F8FBFF34F8FFEE7704700BF6B
:1081E0002802002004ED00E0084A136843B94FF06C
:1081F000500383F31188BFF36F8FBFF34F8FFEE7F8
:10820000013B13600BB983F31188704728020020EB
:10821000EFF30980BFF36F8F154B1A681EF0100F34
:1082200008BF20ED108A20E9F04F10604DF8043DA2
:108230004FF0500080F31188BFF34F8FBFF36F8F63
:10824000FFF75EFB4FF0000080F3118808BC19684F
:108250000868B0E8F04F1EF0100F08BFB0EC108AAD
:1082600080F30988BFF36F8F704700BFAFF30080C2
:108270002414002008B54FF0500383F31188BFF396
:108280006F8FBFF34F8FFFF7F7F918B1034B4FF024
:1082900080521A60002383F3118808BD04ED00E0CA
:1082A000064B4FF47A721B68B3FBF2F3044A013BAE
:1082B0001360044B07221A60704700BFA002002021
:1082C00014E000E010E000E013B5314B314A1968CA
:1082D000914208D14FF0500383F31188BFF36F8FA1
:1082E000BFF34F8FFEE71A682B4B9A4208D14FF02D
:1082F000500383F31188BFF36F8FBFF34F8FFEE7F7
:10830000264B1A78D2B20192FF221A701B78244AA7
:10831000DBB28DF803309DF8033003F05003137087
:10832000204B07221A6000219DF80300000602F18D
:10833000FF3423D401B11A601A68120202F4E06219
:108340001A60019B154ADBB21370174B1A6842F48E
:1083500070021A601A6842F070421A60FFF7A0FFBC
:10836000124B00221A60FFF7E7FE114A136843F030
:1083700040431360FFF7D0FEFFF7B6FE9DF80320E1
:108380005200D2B28DF8032001212246CCE700BF73
:1083900000ED00E071C20F4170C20F4100E400E047
:1083A000B4950020B895002020ED00E028020020C0
:1083B00034EF00E0EFF305830F2B0ED9104A9B5CDE
:1083C000104A12789A4208D94FF0500383F311886B
:1083D000BFF36F8FBFF34F8FFEE70B4B0B4A1B684A
:1083E000126803F4E063934208D94FF0500383F31B
:1083F0001188BFF36F8FBFF34F8FFEE7704700BF49
:10840000F0E300E0B49500200CED00E0B89500200A
:1084100010B5014688B00022362000F0D3FF362088
:1084200001F004F800230293174B1A6C42F010027B
:108430001A641B6C03F01003029301A903A8029BAA
:1084400002F0A0FB069BC3B902F08CFB0F4C104B53
:10845000236040F2E733E3600E4BB0FBF3F00138EA
:108460000023606020462361A36003F0FDF940B95A
:10847000204603F0DFF808B010BD02F073FB4000A7
:10848000E4E70120F7E700BF00380240E097002052
:108490000010004040420F0000F064BF014803F0AC
:1084A000D9B800BFE09700207047FEE7FEE7FEE77F
:1084B000FEE77047024B1B780BB1FFF7DBBE70473E
:1084C00018140020014801F0CBB900BFD8130020D8
:1084D000054B9A6B9A6B920705D50222DA63034A21
:1084E000136801331360704700680140BC95002099
:1084F000F02070474FF4A0707047292000F04CBC6A
:10850000282000F049BC08B500F0CEFBCA2000F0DE
:1085100043FCC32000F024FC082000F021FC502084
:1085200000F01EFCCF2000F037FC002000F018FC0B
:10853000C12000F015FC302000F012FCED2000F00E
:108540002BFC642000F00CFC032000F009FC12203E
:1085500000F006FC812000F003FCE82000F01CFC89
:10856000852000F0FDFB002000F0FAFB782000F0F1
:10857000F7FBCB2000F010FC392000F0F1FB2C20A1
:1085800000F0EEFB002000F0EBFB342000F0E8FBF5
:10859000022000F0E5FBF72000F0FEFB202000F0B9
:1085A000DFFBEA2000F0F8FB002000F0D9FB002000
:1085B00000F0D6FBB12000F0EFFB002000F0D0FB74
:1085C0001B2000F0CDFBB62000F0E6FB0A2000F0F7
:1085D000C7FBA22000F0C4FBC02000F0DDFB102090
:1085E00000F0BEFBC12000F0D7FB102000F0B8FB6C
:1085F000C52000F0D1FB452000F0B2FB152000F0B3
:10860000AFFBC72000F0C8FB902000F0A9FB36208C
:1086100000F0C2FBC82000F0A3FBF22000F0BCFB7E
:10862000002000F09DFBB02000F0B6FBC22000F05F
:1086300097FBB62000F0B0FB0A2000F091FBA720CA
:1086400000F08EFB272000F08BFB042000F088FB5D
:108650002A2000F0A1FB002000F082FB002000F0A7
:108660007FFB002000F07CFBEF2000F079FB2B204B
:1086700000F092FB002000F073FB002000F070FB84
:10868000012000F06DFB3F2000F06AFBF62000F0B7
:1086900083FB012000F064FB002000F061FB06205A
:1086A00000F05EFB2C2000F077FBC82000F0C6FB3A
:1086B000262000F071FB012000F052FBE02000F0CA
:1086C0006BFB0F2000F04CFB292000F049FB24201D
:1086D00000F046FB0C2000F043FB0E2000F040FBB6
:1086E000092000F03DFB4E2000F03AFB782000F01E
:1086F00037FB3C2000F034FB092000F031FB132055
:1087000000F02EFB052000F02BFB172000F028FBCB
:10871000112000F025FB002000F022FBE12000F0FA
:108720003BFB002000F01CFB162000F019FB1B2077
:1087300000F016FB042000F013FB112000F010FBEA
:10874000072000F00DFB312000F00AFB332000F081
:1087500007FB422000F004FB052000F001FB0C2089
:1087600000F0FEFA0A2000F0FBFA282000F0F8FAE8
:108770002F2000F0F5FA0F2000F0F2FA112000F09F
:108780000BFBC82000F05AFB292000F005FB2C2031
:10879000BDE8084000F000BB08B500F085FA0321F1
:1087A000D32000F015FB80B208BD10B5C4B2022280
:1087B0000321204600F070FB0A2000F0B9FB2046A0
:1087C0000022032100F068FB0220BDE8104000F009
:1087D000AFBB38B50446E4B200F032FB00212046BE
:1087E00000F074FB01210546204600F06FFB40EAD3
:1087F000052080B238BD10B5C4B24021204600F03B
:1088000065FB030607D54C21204600F05FFB0030D6
:1088100018BF012010BD204601224B2100F03CFB77
:10882000204600224B2100F037FB002010BD73B51D
:108830000423C4B20E461546D7210DEB0302204691
:1088400000F060FB019B1BBA1A0DC3F30B233280AF
:1088500020462B8001224B2100F01EFB00224B21E1
:10886000204600F019FB02B070BD000010B50B4AA5
:1088700013789842044610D05178884203D110BD35
:1088800059B9012301E0002BFAD1D45400F0D8FAF1
:108890002046BDE81040FFF788BF10BDC0950020FE
:1088A00010B5C4B20921204600F010FB40F00102CF
:1088B000D2B220460921BDE8104000F0EDBA10B553
:1088C000C4B20921204600F001FB092100F0FE029C
:1088D0002046BDE8104000F0DFBA38B5C5B20C46FE
:1088E00028460A2100F0F2FA40EA0402D2B22846F1
:1088F0000A21BDE8384000F0CFBA10B5044600F0B8
:10890000A1FA20461F21FFF7E8FF2046BDE81040EE
:10891000FFF7C6BF38B5C5B20C4628460A2100F09D
:10892000D5FA20EA0402D2B228460A21BDE838402E
:1089300000F0B2BA10B50446FFF7C1FF20461F2170
:10894000BDE81040FFF7E6BF10B5C0B20C460B21E2
:1089500000F0BCFA204010BD1F21FFF7F5BF0A460A
:10896000C0B20B2100F098BA1F21FFF7F8BF38B54D
:10897000C5B20C462846172100F0A8FA20EA0402E6
:10898000D2B228461721BDE8384000F085BA70B54C
:10899000C4B206460421204600F098FA042100F0F3
:1089A000FB020546204600F077FA3046F021FFF73B
:1089B000DEFF05F0F8022046042100F06DFA49229E
:1089C0002021204600F068FA022000F0B1FA20468B
:1089D0000122212100F060FA20469A22412100F074
:1089E0005BFA204601224A2100F056FA2046012275
:1089F0004B2100F051FA204600224B2100F04CFAA6
:108A000020460122562100F047FA20460122582133
:108A100000F042FA20460122402100F03DFA2046B3
:108A2000FF220B2100F038FA0220BDE8704000F070
:108A30007FBA000010B5214C88B0204602F0F6FD48
:108A4000002838D11E4B23601823E3610723E3621B
:108A50004FF40073A3614FF482736360194B01906C
:108A6000A06060612061A062E060206260625A6C78
:108A700042F480125A645A6C02F480120192019AF4
:108A800002901A6B104842F020021A631B6B03F02D
:108A900020030293029B4FF4607303930223049319
:108AA00005930123069303A90523079300F0B4FF60
:108AB000204602F046FA08B010BD00BFC495002061
:108AC00000500140003802400014024070B5334E9F
:108AD00088B0304601F09AFC044600285BD1304A49
:108AE000304B314D009086E80C004FF48043B0606D
:108AF000F0607061B061F061306233612B6B43F004
:108B000004032B632B6B03F004030093009B019081
:108B10002B6B43F001032B632B6B059003F00103D8
:108B20000193019B21484FF4807303931223049314
:108B30000223069303A90423079300F06DFF4FF46B
:108B4000007303A91A48039300F066FF02942B6C8C
:108B500043F400032B642B6C03F400030293029B89
:108B60002B6A43F400032B622B6A23F400032B626D
:108B700022460F21482000F025FC482000F056FC3A
:108B800022460F21492000F01DFC492000F04EFC38
:108B9000304601F0FFF908B070BD00BF1C980020FE
:108BA000005C0040A0860100003802400000024046
:108BB0000008024008B5034801F063FABDE8084028
:108BC000FFF784BF1C98002007B5094B02A91B685A
:108BD00021F8020D0122074802F00FFA20B10548E2
:108BE00002F0F5F9FFF726FF03B05DF804FB00BFC4
:108BF00098020020C495002070B5044688B008BBD8
:108C0000184B01901A6B42F040021A631B6B03F081
:108C100040030193019B144B144D33F8146055F835
:108C20002400039601230493059303A902230693CA
:108C300000F0F2FE0022314655F8240000F0DAFF81
:108C400008B070BD0128E6D100230293054B1A6BD2
:108C500042F040021A631B6B03F040030293029B35
:108C6000D9E700BF00380240483A01088C020020D2
:108C7000044B33F81010044B012253F8200000F08D
:108C8000B9BF00BF483A01088C020020044B33F8FA
:108C90001010044B002253F8200000F0ABBF00BFBF
:108CA000483A01088C020020F0B5294B1D7889B0A4
:108CB000002D4AD1274C009501261E70236B2648B3
:108CC00043F008032363236B049603F00803009327
:108CD0000227009B05954FF4005303A903930697C1
:108CE00000F09AFE0195236B1B4843F008032363B1
:108CF000236B049603F008030193019B05954FF441
:108D0000805303A90393069700F086FE0295236B18
:108D1000124843F004032363236B049603F0040317
:108D20000424029303A9029B03940595069700F07F
:108D300073FE2A462146094800F05CFF3246214670
:108D4000064800F057FFFFF775FE09B0F0BD00BF01
:108D5000C295002000380240000C0240000802408A
:108D600038B50B4C054601224FF40051094800F07C
:108D700041FF00220421204600F03CFF2846FFF777
:108D800023FF204601220421BDE8384000F032BF15
:108D900000080240000C024038B50B4C054600228A
:108DA0004FF40051094800F025FF0022042120461D
:108DB00000F020FF2846FFF707FF2046012204218C
:108DC000BDE8384000F016BF00080240000C024029
:108DD00037B505460C4600220421144800F00AFF6E
:108DE00000224FF40051124800F004FF2846FFF71C
:108DF000EBFE104B10481B68224601A902F023FB32
:108E000020B10D4802F0E3F8FFF714FE01224FF401
:108E100000510748019C00F0EDFE012204210348A7
:108E200000F0E8FE204603B030BD00BF000802405D
:108E3000000C024098020020C495002000F0A0BA67
:108E4000FFF744BE10B586B00024104B00941A6B97
:108E50000F4842F001021A631B6B049403F00103F4
:108E60000093009B4FF4004301930123039301A956
:108E7000084B029300F0D0FD22460F21282000F07D
:108E8000A1FA282000F0D2FA06B010BD0038024046
:108E9000000002400000211010B586B006AC094B5E
:108EA00004F8012D1B68029301230A460193014631
:108EB0000094054801F0FEF808B1FFF77BFE06B00C
:108EC00010BD00BF940200201C9800207FB506AAA8
:108ED000002302F8013D094B1B68029301238DE832
:108EE0000C000A460146064801F07EF908B1FFF77A
:108EF00061FE9DF8170007B05DF804FB94020020A6
:108F00001C9800201FB5084C24688DE81C000A46F8
:108F100001230146054801F067F910B1FFF74AFE49
:108F2000012004B010BD00BF940200201C98002056
:108F300000F026BA2DE9F347234C244D01264FF0CB
:108F400000080827214682464FF6FF722846CDF8D2
:108F5000048084E8C000A660C4F80C8001F06DFFB6
:108F6000304600F00DFA022321464FF6FF722846E4
:108F700084E888004FF00409A660C4F80C8001F072
:108F80005CFF032321464FF6FF72284684E88800E1
:108F9000C4F80890C4F80C8001F04FFF4FF40C7334
:108FA0000193019BE3604FF6FF7221462846C4F807
:108FB00000906760A66001F040FF5146284601F02E
:108FC00053FF02B0BDE8F0871C9600202C960020CD
:108FD00070B506468EB0002800F0AD80574B58485B
:108FE000002501959A6B42F001029A639A6B02F098
:108FF00001020192019A02951A6B42F480021A63EF
:109000001A6B02F480020292029A03951A6B42F0E4
:1090100002021A631A6B02F002020392039A049589
:109020001A6B42F004021A631A6B02F004020492F3
:10903000049A05951A6B42F008021A631A6B02F043
:1090400008020592059A06951A6B42F010021A63FF
:109050001A6B02F010020692069A07951A6B42F0FC
:1090600020021A631A6B02F020020792079A0895F1
:109070001A6B42F040021A631B6B0B9503F040031E
:109080000893089B02230EAC0A930C930C230D93B8
:10909000602344F8143D214600F0BEFC0123214624
:1090A0002848099300F0B8FC4CF203732146264887
:1090B000099300F0B1FC4FF68373214623480993CE
:1090C00000F0AAFC4FF63F0321462148099300F027
:1090D000A3FC214648F233131E4C1F48099300F0AD
:1090E0009BFC8023A3604FF40073E3604FF4806324
:1090F00023614FF4805363614FF48043A3614FF4C5
:10910000003323620323A3622563144B3463204698
:1091100023606560E5616562E562A66300F02AFA96
:10912000204600F0A5F938202A460F2100F04AF920
:10913000382000F07BF90EB070BD00BF003802404F
:109140000004024000080240000C024000100240EF
:10915000001402407C960020001802401064024077
:1091600070B51A4C1A4D1B4B236002232B602B61E8
:109170006B61AB6110232361402363614FF4C073C3
:109180000721A3614FF4006304226960E9600126AE
:109190000021236220464FF40053E260A362AA60DC
:1091A0006660A160E1616162FFF712FF2946204617
:1091B00001F023FE084C002814BF30460020207028
:1091C00040F26A50FFF7B6FE207870BD2C96002062
:1091D00060960020400100A09C02002038B50C4B96
:1091E0000C4C18800C4B822019806368984740F61D
:1091F000110398420AD1094D23682C6082209847B8
:109200002B688220DB689847002038BD012038BDDC
:10921000E096002064020020E2960020DC96002008
:1092200073B52A4D2B6804461B698220984780B28B
:109230002080002848D02B680DF106025B6901A947
:1092400082209847BDF80630A3F5B4739BB20B2279
:10925000B3FBF2F333B11E4A1288934284BF02F18A
:10926000FF339BB2BDF8042040F6B8318A4295BF67
:10927000C2F57162C2F56D620E320832ADF804209B
:10928000BDF804000F22B0FBF2F030B1114A128891
:10929000904284BF02F1FF3080B20F4E0F4D326812
:1092A000296890428CBF821A121A8B428CBF591ABD
:1092B000C91A92B289B20A44052AC4BF30602B6031
:1092C000336863802B68A38002B070BDDC960020F9
:1092D000E2960020E0960020E4960020E896002028
:1092E0000F49D1F8883043F47003C1F888300D4B32
:1092F0001A68002042F001021A6098601A6822F091
:10930000847222F480321A60074A5A601A6822F482
:1093100080221A60D8604FF000638B60704700BFF6
:1093200000ED00E0003802401030002470470000DB
:1093300008B50B4B1A6842F400721A601A6842F4BE
:1093400080621A601A6842F480721A60032000F08A
:1093500027F80120FFF75CF8FFF7E8FF002008BDC1
:10936000003C0240024A136801331360704700BF9B
:1093700070980020014B1868704700BF709800205B
:1093800037B50190FFF7F6FF019C631C054618BF37
:109390000134FFF7EFFF401BA042FAD303B030BD0A
:1093A000074AD36823F4E0631B041B0C43F0BF633C
:1093B000000243F4003300F4E0600343D3607047DD
:1093C00000ED00E030B5174BDC68C4F30224C4F1B3
:1093D0000703251D042B28BF0423062D4FF001058C
:1093E00005FA03F303F1FF338CBF033C002419405B
:1093F000A14005FA04F4013C2240002842EA01029F
:109400004FEA0212AFBF00F1604000F00F00064BC0
:10941000D2B2A5BF00F56140D2B21A5480F8002341
:1094200030BD00BF00ED00E014ED00E04209012373
:1094300000F01F0003FA00F0014B43F822007047D0
:1094400000E100E00368DAB223F47F7323F0030342
:109450001821103AB2FBF1F20449032A88BF043301
:10946000895C8365C165806D704700BF643A0108FF
:1094700038B50446FFF77EFF0546002C75D0002363
:1094800084F834302268022384F83530136823F0DE
:109490000103136021680B68D8073FD40B68344878
:1094A00062681840A3681343E268134322691343B8
:1094B00062691343A2691343E2691343226A1343A7
:1094C000626A042A43EA000301BFE26A206B024396
:1094D00013430B602068626A4369042A23F0070380
:1094E00043EA02030CD1A26AE16A134341B1A569C0
:1094F000FDB9012A2ED001D3022A01D1CA012CD4F0
:1095000043612046FFF79EFFE26D3F239340836057
:1095100000200123606584F8353038BDFFF72AFF4D
:10952000401B0528B6D920236365032084F8350045
:1095300038BDB5F5005F14D1032AE1D801A555F86F
:1095400022F000BF5B950008FD9400085B950008C1
:1095500055950008B1F1C07FD2D140236365012049
:10956000E4E7022AF9D9032AC7E7012038BD00BF82
:109570003F8010F038B5054620B390F83540E4B28E
:10958000022C1DD00268136823F0010313600368E6
:1095900000241C6003685C6003689C600368DC60F6
:1095A00003681C61036821225A61FFF74BFFEA6DD3
:1095B0003F23934083606C6585F8344085F83540DF
:1095C000204638BD012038BD70B50668049C756C16
:1095D00044EA034305F040452B4373640368DA63B0
:1095E00043680268B3F5403F30D186681EB1012E52
:1095F00003D121F07F41916370BD022E01F47F03FE
:1096000001F47F45CCB207D1D90CAD0AC90241EAB9
:10961000451141EAD401EEE7032E01F07F400AD163
:10962000DB0CED0A9B0243EA451343EAD403C10F66
:1096300043EAC131DFE7190D2D0B090241EA05119B
:1096400041EA1411030F41EA0331D4E7D16070BD40
:10965000704710B5044640B390F8393003F0FF026C
:109660001BB980F83820FFF7F3FF226861680223F6
:1096700084F83930136823F440330B4313602268B5
:10968000A168536B23F007030B4353632268E1681F
:10969000136C23F47F5323F03F030B431364002028
:1096A0000123E06384F8393010BD012010BD7047FC
:1096B00073B590F83840012C05464FF0020414D0E1
:1096C00080F839400126069C80F838600094FFF746
:1096D0007BFF2A68136843F40C5313602A681368ED
:1096E00033431360002002B070BD2046FBE773B522
:1096F00015461A4690F83830012B04464FF0020305
:1097000017D080F839300368012680F838605D6131
:10971000079B0093069BFFF757FF2268136843F4EB
:109720000C5313602268136833431360002002B0A7
:1097300070BD1846FBE738B50268136823F00503CF
:1097400043F0040313600446FFF714FE0546236844
:10975000186810F0010009D11A6822F40C521A603E
:10976000012384F8393084F8380038BDFFF702FE51
:10977000401BB0F57A7FEAD9E36B43F02003E36343
:109780000320002384F8390084F8383038BD70B5E0
:1097900005682A6842F004022A60012908BF0368AC
:1097A000044614BF243503F11C05FFF7E3FD06460C
:1097B000286810F020000AD12268136823F464534B
:1097C0001360012384F8393084F8380070BDFFF746
:1097D000D1FD801BB0F57A7FEAD9E36B43F020031B
:1097E000E3630320002384F8390084F8383070BD27
:1097F00010B5044608B9012010BD174B1B6B1902A8
:1098000015D42046FFF753FF236800201860236813
:109810001861236898612368D861236858622368B7
:109820005863E06384F8380084F8390010BD036899
:10983000196811F0010104D0FFF77DFF0028E0D086
:10984000D9E75A6A920602D5FFF7A1FFF6E7DB696E
:109850009B06D6D50121F7E70038024070477047D4
:1098600070B503685E681D68F207044615D5E90502
:1098700013D51A6822F480721A60C36B43F0010397
:10988000C363036801229A60042380F839300023FF
:1098900080F83830436903B19847B20617D5AB0456
:1098A00015D52268136823F400531360236820221F
:1098B0009A60E36B43F00203E363042384F83930D6
:1098C000002384F8383063690BB12046984730078D
:1098D00017D5290515D52268136823F40063136092
:1098E000236808229A60E36B43F00403E3630423D4
:1098F00084F83930002384F8383063690BB120468E
:10990000984772070CD56B050AD52268136823F4B3
:1099100080631360236804229A602046FFF79EFF4D
:10992000B00715D5A90513D52268136823F4007371
